{
  "_format": "hh-sol-artifact-1",
  "contractName": "PandaMarket",
  "sourceName": "contracts/PandaMarketplace.sol",
  "abi": [
    {
      "inputs": [
        {
          "internalType": "uint8",
          "name": "fee",
          "type": "uint8"
        }
      ],
      "stateMutability": "nonpayable",
      "type": "constructor"
    },
    {
      "inputs": [],
      "name": "PandaMarket__AlreadyListed",
      "type": "error"
    },
    {
      "inputs": [],
      "name": "PandaMarket__NotApproved",
      "type": "error"
    },
    {
      "inputs": [],
      "name": "PandaMarket__NotEnoughFunds",
      "type": "error"
    },
    {
      "inputs": [],
      "name": "PandaMarket__NotListed",
      "type": "error"
    },
    {
      "inputs": [],
      "name": "PandaMarket__NotOwner__StopTryingToStealDumbass",
      "type": "error"
    },
    {
      "inputs": [],
      "name": "PandaMarket__NotTheOwner",
      "type": "error"
    },
    {
      "inputs": [],
      "name": "PandaMarket__PriceShouldNotBeZero",
      "type": "error"
    },
    {
      "inputs": [],
      "name": "PandaMarket__TransferNotSuccess",
      "type": "error"
    },
    {
      "anonymous": false,
      "inputs": [
        {
          "indexed": true,
          "internalType": "address",
          "name": "nftAddress",
          "type": "address"
        },
        {
          "indexed": true,
          "internalType": "uint256",
          "name": "tokenId",
          "type": "uint256"
        },
        {
          "indexed": true,
          "internalType": "address",
          "name": "buyer",
          "type": "address"
        }
      ],
      "name": "NftBought",
      "type": "event"
    },
    {
      "anonymous": false,
      "inputs": [
        {
          "indexed": true,
          "internalType": "address",
          "name": "nftAddress",
          "type": "address"
        },
        {
          "indexed": true,
          "internalType": "uint256",
          "name": "tokenId",
          "type": "uint256"
        }
      ],
      "name": "NftCancelled",
      "type": "event"
    },
    {
      "anonymous": false,
      "inputs": [
        {
          "indexed": true,
          "internalType": "address",
          "name": "nftAddress",
          "type": "address"
        },
        {
          "indexed": true,
          "internalType": "uint256",
          "name": "tokenId",
          "type": "uint256"
        },
        {
          "indexed": true,
          "internalType": "address",
          "name": "seller",
          "type": "address"
        },
        {
          "indexed": false,
          "internalType": "uint256",
          "name": "price",
          "type": "uint256"
        }
      ],
      "name": "NftListed",
      "type": "event"
    },
    {
      "inputs": [
        {
          "internalType": "address",
          "name": "nftAddress",
          "type": "address"
        },
        {
          "internalType": "uint256",
          "name": "tokenId",
          "type": "uint256"
        }
      ],
      "name": "buyNft",
      "outputs": [],
      "stateMutability": "payable",
      "type": "function"
    },
    {
      "inputs": [
        {
          "internalType": "address",
          "name": "nftAddress",
          "type": "address"
        },
        {
          "internalType": "uint256",
          "name": "tokenId",
          "type": "uint256"
        }
      ],
      "name": "cancelNft",
      "outputs": [],
      "stateMutability": "nonpayable",
      "type": "function"
    },
    {
      "inputs": [
        {
          "internalType": "address",
          "name": "nftAddress",
          "type": "address"
        },
        {
          "internalType": "uint256",
          "name": "tokenId",
          "type": "uint256"
        }
      ],
      "name": "getListed",
      "outputs": [
        {
          "components": [
            {
              "internalType": "address",
              "name": "seller",
              "type": "address"
            },
            {
              "internalType": "uint256",
              "name": "price",
              "type": "uint256"
            }
          ],
          "internalType": "struct PandaMarket.Listing",
          "name": "",
          "type": "tuple"
        }
      ],
      "stateMutability": "view",
      "type": "function"
    },
    {
      "inputs": [
        {
          "internalType": "uint256",
          "name": "price",
          "type": "uint256"
        }
      ],
      "name": "getMarketFee",
      "outputs": [
        {
          "internalType": "uint256",
          "name": "",
          "type": "uint256"
        }
      ],
      "stateMutability": "view",
      "type": "function"
    },
    {
      "inputs": [
        {
          "internalType": "address",
          "name": "userAddress",
          "type": "address"
        }
      ],
      "name": "getProceeds",
      "outputs": [
        {
          "internalType": "uint256",
          "name": "",
          "type": "uint256"
        }
      ],
      "stateMutability": "view",
      "type": "function"
    },
    {
      "inputs": [
        {
          "internalType": "address",
          "name": "nftAddress",
          "type": "address"
        },
        {
          "internalType": "uint256",
          "name": "tokenId",
          "type": "uint256"
        },
        {
          "internalType": "uint256",
          "name": "price",
          "type": "uint256"
        }
      ],
      "name": "getRoyaltyData",
      "outputs": [
        {
          "internalType": "address",
          "name": "",
          "type": "address"
        },
        {
          "internalType": "uint256",
          "name": "",
          "type": "uint256"
        }
      ],
      "stateMutability": "view",
      "type": "function"
    },
    {
      "inputs": [],
      "name": "getTreasuryBalance",
      "outputs": [
        {
          "internalType": "uint256",
          "name": "",
          "type": "uint256"
        }
      ],
      "stateMutability": "view",
      "type": "function"
    },
    {
      "inputs": [
        {
          "internalType": "address",
          "name": "nftAddress",
          "type": "address"
        },
        {
          "internalType": "uint256",
          "name": "tokenId",
          "type": "uint256"
        },
        {
          "internalType": "uint256",
          "name": "price",
          "type": "uint256"
        }
      ],
      "name": "listNft",
      "outputs": [],
      "stateMutability": "nonpayable",
      "type": "function"
    },
    {
      "inputs": [
        {
          "internalType": "address",
          "name": "nftAddress",
          "type": "address"
        },
        {
          "internalType": "uint256",
          "name": "tokenId",
          "type": "uint256"
        },
        {
          "internalType": "uint256",
          "name": "newPrice",
          "type": "uint256"
        }
      ],
      "name": "updateNft",
      "outputs": [],
      "stateMutability": "nonpayable",
      "type": "function"
    },
    {
      "inputs": [],
      "name": "withdrawProceeds",
      "outputs": [],
      "stateMutability": "nonpayable",
      "type": "function"
    },
    {
      "inputs": [],
      "name": "withdrawTreasury",
      "outputs": [],
      "stateMutability": "nonpayable",
      "type": "function"
    }
  ],
  "bytecode": "0x60c06040523480156200001157600080fd5b5060405162001c8038038062001c8083398181016040528101906200003791906200009d565b8060ff1660808160ff1660f81b815250503373ffffffffffffffffffffffffffffffffffffffff1660a08173ffffffffffffffffffffffffffffffffffffffff1660601b8152505050620000fb565b6000815190506200009781620000e1565b92915050565b600060208284031215620000b657620000b5620000dc565b5b6000620000c68482850162000086565b91505092915050565b600060ff82169050919050565b600080fd5b620000ec81620000cf565b8114620000f857600080fd5b50565b60805160f81c60a05160601c611b526200012e60003960008181610288015261035c01526000610c0c0152611b526000f3fe60806040526004361061009c5760003560e01c80637ef1c3c7116100645780637ef1c3c7146101785780639038e693146101b5578063954acee6146101cc5780639b5655dc146101f5578063c922b17c14610220578063cd6a20dc146102495761009c565b8063166bab95146100a157806330cfeda9146100b85780634ddf4f8f146100f55780635db3a3ab146101115780637d88aa891461014f575b600080fd5b3480156100ad57600080fd5b506100b6610286565b005b3480156100c457600080fd5b506100df60048036038101906100da91906115ca565b61041f565b6040516100ec9190611899565b60405180910390f35b61010f600480360381019061010a9190611624565b610468565b005b34801561011d57600080fd5b50610138600480360381019061013391906116a4565b6108aa565b60405161014692919061183a565b60405180910390f35b34801561015b57600080fd5b50610176600480360381019061017191906116a4565b610943565b005b34801561018457600080fd5b5061019f600480360381019061019a9190611724565b610c06565b6040516101ac9190611899565b60405180910390f35b3480156101c157600080fd5b506101ca610c4a565b005b3480156101d857600080fd5b506101f360048036038101906101ee9190611624565b610d7d565b005b34801561020157600080fd5b5061020a610fd0565b6040516102179190611899565b60405180910390f35b34801561022c57600080fd5b50610247600480360381019061024291906116a4565b610fd9565b005b34801561025557600080fd5b50610270600480360381019061026b9190611624565b6113c8565b60405161027d919061187e565b60405180910390f35b7f000000000000000000000000000000000000000000000000000000000000000073ffffffffffffffffffffffffffffffffffffffff163373ffffffffffffffffffffffffffffffffffffffff161461030b576040517f5800183900000000000000000000000000000000000000000000000000000000815260040160405180910390fd5b6000610315610fd0565b905060008111610351576040517f5a4be7f600000000000000000000000000000000000000000000000000000000815260040160405180910390fd5b6000808190555060007f000000000000000000000000000000000000000000000000000000000000000073ffffffffffffffffffffffffffffffffffffffff168260405161039e906117ee565b60006040518083038185875af1925050503d80600081146103db576040519150601f19603f3d011682016040523d82523d6000602084013e6103e0565b606091505b505090508061041b576040517f140d56e000000000000000000000000000000000000000000000000000000000815260040160405180910390fd5b5050565b6000600260008373ffffffffffffffffffffffffffffffffffffffff1673ffffffffffffffffffffffffffffffffffffffff168152602001908152602001600020549050919050565b81816000600160008473ffffffffffffffffffffffffffffffffffffffff1673ffffffffffffffffffffffffffffffffffffffff16815260200190815260200160002060008381526020019081526020016000206001015414156104f8576040517f5cd0b82300000000000000000000000000000000000000000000000000000000815260040160405180910390fd5b600061050485856113c8565b90508060200151341015610544576040517f5a4be7f600000000000000000000000000000000000000000000000000000000815260040160405180910390fd5b600160008673ffffffffffffffffffffffffffffffffffffffff1673ffffffffffffffffffffffffffffffffffffffff1681526020019081526020016000206000858152602001908152602001600020600080820160006101000a81549073ffffffffffffffffffffffffffffffffffffffff021916905560018201600090555050600085905060006105da8360200151610c06565b905060006105e788611493565b90508015610766576000806106018a8a88602001516108aa565b915091506000843461061391906119c9565b9050818161062191906119c9565b90508573ffffffffffffffffffffffffffffffffffffffff166342842e0e8860000151338d6040518463ffffffff1660e01b815260040161066493929190611803565b600060405180830381600087803b15801561067e57600080fd5b505af1158015610692573d6000803e3d6000fd5b505050508060026000896000015173ffffffffffffffffffffffffffffffffffffffff1673ffffffffffffffffffffffffffffffffffffffff16815260200190815260200160002060008282546106e991906118e8565b9250508190555081600260008573ffffffffffffffffffffffffffffffffffffffff1673ffffffffffffffffffffffffffffffffffffffff168152602001908152602001600020600082825461073f91906118e8565b925050819055508460008082825461075791906118e8565b92505081905550505050610845565b6000823461077491906119c9565b90508373ffffffffffffffffffffffffffffffffffffffff166342842e0e8660000151338b6040518463ffffffff1660e01b81526004016107b793929190611803565b600060405180830381600087803b1580156107d157600080fd5b505af11580156107e5573d6000803e3d6000fd5b505050508060026000876000015173ffffffffffffffffffffffffffffffffffffffff1673ffffffffffffffffffffffffffffffffffffffff168152602001908152602001600020600082825461083c91906118e8565b92505081905550505b3373ffffffffffffffffffffffffffffffffffffffff16878973ffffffffffffffffffffffffffffffffffffffff167f25509076a1fce7b20257c3263500a06b4bb8b876b0aad894748dbea955eeddc560405160405180910390a45050505050505050565b6000808473ffffffffffffffffffffffffffffffffffffffff16632a55205a85856040518363ffffffff1660e01b81526004016108e89291906118b4565b604080518083038186803b1580156108ff57600080fd5b505afa158015610913573d6000803e3d6000fd5b505050506040513d601f19601f820116820180604052508101906109379190611664565b91509150935093915050565b828260008290508073ffffffffffffffffffffffffffffffffffffffff16636352211e836040518263ffffffff1660e01b81526004016109839190611899565b60206040518083038186803b15801561099b57600080fd5b505afa1580156109af573d6000803e3d6000fd5b505050506040513d601f19601f820116820180604052508101906109d391906115f7565b73ffffffffffffffffffffffffffffffffffffffff163373ffffffffffffffffffffffffffffffffffffffff1614610a37576040517faa26907800000000000000000000000000000000000000000000000000000000815260040160405180910390fd5b85856000600160008473ffffffffffffffffffffffffffffffffffffffff1673ffffffffffffffffffffffffffffffffffffffff1681526020019081526020016000206000838152602001908152602001600020600101541415610ac7576040517f5cd0b82300000000000000000000000000000000000000000000000000000000815260040160405180910390fd5b60405180604001604052803373ffffffffffffffffffffffffffffffffffffffff16815260200187815250600160008a73ffffffffffffffffffffffffffffffffffffffff1673ffffffffffffffffffffffffffffffffffffffff168152602001908152602001600020600089815260200190815260200160002060008201518160000160006101000a81548173ffffffffffffffffffffffffffffffffffffffff021916908373ffffffffffffffffffffffffffffffffffffffff160217905550602082015181600101559050503373ffffffffffffffffffffffffffffffffffffffff16878973ffffffffffffffffffffffffffffffffffffffff167fe77c968bf19b7719db31a77b3b1392ff896ba9e80d49e57381106452c9d7cc2689604051610bf49190611899565b60405180910390a45050505050505050565b600060647f000000000000000000000000000000000000000000000000000000000000000060ff1683610c39919061196f565b610c43919061193e565b9050919050565b6000610c553361041f565b905060008111610c91576040517f5a4be7f600000000000000000000000000000000000000000000000000000000815260040160405180910390fd5b6000600260003373ffffffffffffffffffffffffffffffffffffffff1673ffffffffffffffffffffffffffffffffffffffff1681526020019081526020016000208190555060003373ffffffffffffffffffffffffffffffffffffffff1682604051610cfc906117ee565b60006040518083038185875af1925050503d8060008114610d39576040519150601f19603f3d011682016040523d82523d6000602084013e610d3e565b606091505b5050905080610d79576040517f140d56e000000000000000000000000000000000000000000000000000000000815260040160405180910390fd5b5050565b818160008290508073ffffffffffffffffffffffffffffffffffffffff16636352211e836040518263ffffffff1660e01b8152600401610dbd9190611899565b60206040518083038186803b158015610dd557600080fd5b505afa158015610de9573d6000803e3d6000fd5b505050506040513d601f19601f82011682018060405250810190610e0d91906115f7565b73ffffffffffffffffffffffffffffffffffffffff163373ffffffffffffffffffffffffffffffffffffffff1614610e71576040517faa26907800000000000000000000000000000000000000000000000000000000815260040160405180910390fd5b84846000600160008473ffffffffffffffffffffffffffffffffffffffff1673ffffffffffffffffffffffffffffffffffffffff1681526020019081526020016000206000838152602001908152602001600020600101541415610f01576040517f5cd0b82300000000000000000000000000000000000000000000000000000000815260040160405180910390fd5b600160008873ffffffffffffffffffffffffffffffffffffffff1673ffffffffffffffffffffffffffffffffffffffff1681526020019081526020016000206000878152602001908152602001600020600080820160006101000a81549073ffffffffffffffffffffffffffffffffffffffff021916905560018201600090555050858773ffffffffffffffffffffffffffffffffffffffff167f88d8d2c2d8e018c2d1ade64085b6ab3af53e877b66caf3dbe7f007017428a94360405160405180910390a350505050505050565b60008054905090565b828260008290508073ffffffffffffffffffffffffffffffffffffffff16636352211e836040518263ffffffff1660e01b81526004016110199190611899565b60206040518083038186803b15801561103157600080fd5b505afa158015611045573d6000803e3d6000fd5b505050506040513d601f19601f8201168201806040525081019061106991906115f7565b73ffffffffffffffffffffffffffffffffffffffff163373ffffffffffffffffffffffffffffffffffffffff16146110cd576040517faa26907800000000000000000000000000000000000000000000000000000000815260040160405180910390fd5b85856000600160008473ffffffffffffffffffffffffffffffffffffffff1673ffffffffffffffffffffffffffffffffffffffff1681526020019081526020016000206000838152602001908152602001600020600101541461115c576040517f2eb353ab00000000000000000000000000000000000000000000000000000000815260040160405180910390fd5b60008611611196576040517fbb03c53400000000000000000000000000000000000000000000000000000000815260040160405180910390fd5b60008890503073ffffffffffffffffffffffffffffffffffffffff168173ffffffffffffffffffffffffffffffffffffffff1663081812fc8a6040518263ffffffff1660e01b81526004016111eb9190611899565b60206040518083038186803b15801561120357600080fd5b505afa158015611217573d6000803e3d6000fd5b505050506040513d601f19601f8201168201806040525081019061123b91906115f7565b73ffffffffffffffffffffffffffffffffffffffff1614611288576040517f7a65dafa00000000000000000000000000000000000000000000000000000000815260040160405180910390fd5b60405180604001604052803373ffffffffffffffffffffffffffffffffffffffff16815260200188815250600160008b73ffffffffffffffffffffffffffffffffffffffff1673ffffffffffffffffffffffffffffffffffffffff16815260200190815260200160002060008a815260200190815260200160002060008201518160000160006101000a81548173ffffffffffffffffffffffffffffffffffffffff021916908373ffffffffffffffffffffffffffffffffffffffff160217905550602082015181600101559050503373ffffffffffffffffffffffffffffffffffffffff16888a73ffffffffffffffffffffffffffffffffffffffff167fe77c968bf19b7719db31a77b3b1392ff896ba9e80d49e57381106452c9d7cc268a6040516113b59190611899565b60405180910390a4505050505050505050565b6113d0611531565b600160008473ffffffffffffffffffffffffffffffffffffffff1673ffffffffffffffffffffffffffffffffffffffff16815260200190815260200160002060008381526020019081526020016000206040518060400160405290816000820160009054906101000a900473ffffffffffffffffffffffffffffffffffffffff1673ffffffffffffffffffffffffffffffffffffffff1673ffffffffffffffffffffffffffffffffffffffff168152602001600182015481525050905092915050565b6000808273ffffffffffffffffffffffffffffffffffffffff166301ffc9a7632a55205a60e01b6040518263ffffffff1660e01b81526004016114d69190611863565b60206040518083038186803b1580156114ee57600080fd5b505afa158015611502573d6000803e3d6000fd5b505050506040513d601f19601f8201168201806040525081019061152691906116f7565b905080915050919050565b6040518060400160405280600073ffffffffffffffffffffffffffffffffffffffff168152602001600081525090565b60008135905061157081611ad7565b92915050565b60008151905061158581611ad7565b92915050565b60008151905061159a81611aee565b92915050565b6000813590506115af81611b05565b92915050565b6000815190506115c481611b05565b92915050565b6000602082840312156115e0576115df611acf565b5b60006115ee84828501611561565b91505092915050565b60006020828403121561160d5761160c611acf565b5b600061161b84828501611576565b91505092915050565b6000806040838503121561163b5761163a611acf565b5b600061164985828601611561565b925050602061165a858286016115a0565b9150509250929050565b6000806040838503121561167b5761167a611acf565b5b600061168985828601611576565b925050602061169a858286016115b5565b9150509250929050565b6000806000606084860312156116bd576116bc611acf565b5b60006116cb86828701611561565b93505060206116dc868287016115a0565b92505060406116ed868287016115a0565b9150509250925092565b60006020828403121561170d5761170c611acf565b5b600061171b8482850161158b565b91505092915050565b60006020828403121561173a57611739611acf565b5b6000611748848285016115a0565b91505092915050565b61175a816119fd565b82525050565b611769816119fd565b82525050565b61177881611a1b565b82525050565b600061178b6000836118dd565b915061179682611ad4565b600082019050919050565b6040820160008201516117b76000850182611751565b5060208201516117ca60208501826117d0565b50505050565b6117d981611a67565b82525050565b6117e881611a67565b82525050565b60006117f98261177e565b9150819050919050565b60006060820190506118186000830186611760565b6118256020830185611760565b61183260408301846117df565b949350505050565b600060408201905061184f6000830185611760565b61185c60208301846117df565b9392505050565b6000602082019050611878600083018461176f565b92915050565b600060408201905061189360008301846117a1565b92915050565b60006020820190506118ae60008301846117df565b92915050565b60006040820190506118c960008301856117df565b6118d660208301846117df565b9392505050565b600081905092915050565b60006118f382611a67565b91506118fe83611a67565b9250827fffffffffffffffffffffffffffffffffffffffffffffffffffffffffffffffff0382111561193357611932611a71565b5b828201905092915050565b600061194982611a67565b915061195483611a67565b92508261196457611963611aa0565b5b828204905092915050565b600061197a82611a67565b915061198583611a67565b9250817fffffffffffffffffffffffffffffffffffffffffffffffffffffffffffffffff04831182151516156119be576119bd611a71565b5b828202905092915050565b60006119d482611a67565b91506119df83611a67565b9250828210156119f2576119f1611a71565b5b828203905092915050565b6000611a0882611a47565b9050919050565b60008115159050919050565b60007fffffffff0000000000000000000000000000000000000000000000000000000082169050919050565b600073ffffffffffffffffffffffffffffffffffffffff82169050919050565b6000819050919050565b7f4e487b7100000000000000000000000000000000000000000000000000000000600052601160045260246000fd5b7f4e487b7100000000000000000000000000000000000000000000000000000000600052601260045260246000fd5b600080fd5b50565b611ae0816119fd565b8114611aeb57600080fd5b50565b611af781611a0f565b8114611b0257600080fd5b50565b611b0e81611a67565b8114611b1957600080fd5b5056fea2646970667358221220f19c567fa1d9f4a1d72aa4316f6118bc57db6bfd024919b1fecf417fb3ac0bf464736f6c63430008070033",
  "linkReferences": {},
  "deployedLinkReferences": {}
}